{
  "_format": "hh-sol-artifact-1",
  "contractName": "FarcasterProNFT",
  "sourceName": "contracts/FarcasterProNFT.sol",
  "abi": [
    {
      "inputs": [],
      "stateMutability": "nonpayable",
      "type": "constructor"
    },
    {
      "inputs": [
        {
          "internalType": "address",
          "name": "sender",
          "type": "address"
        },
        {
          "internalType": "uint256",
          "name": "tokenId",
          "type": "uint256"
        },
        {
          "internalType": "address",
          "name": "owner",
          "type": "address"
        }
      ],
      "name": "ERC721IncorrectOwner",
      "type": "error"
    },
    {
      "inputs": [
        {
          "internalType": "address",
          "name": "operator",
          "type": "address"
        },
        {
          "internalType": "uint256",
          "name": "tokenId",
          "type": "uint256"
        }
      ],
      "name": "ERC721InsufficientApproval",
      "type": "error"
    },
    {
      "inputs": [
        {
          "internalType": "address",
          "name": "approver",
          "type": "address"
        }
      ],
      "name": "ERC721InvalidApprover",
      "type": "error"
    },
    {
      "inputs": [
        {
          "internalType": "address",
          "name": "operator",
          "type": "address"
        }
      ],
      "name": "ERC721InvalidOperator",
      "type": "error"
    },
    {
      "inputs": [
        {
          "internalType": "address",
          "name": "owner",
          "type": "address"
        }
      ],
      "name": "ERC721InvalidOwner",
      "type": "error"
    },
    {
      "inputs": [
        {
          "internalType": "address",
          "name": "receiver",
          "type": "address"
        }
      ],
      "name": "ERC721InvalidReceiver",
      "type": "error"
    },
    {
      "inputs": [
        {
          "internalType": "address",
          "name": "sender",
          "type": "address"
        }
      ],
      "name": "ERC721InvalidSender",
      "type": "error"
    },
    {
      "inputs": [
        {
          "internalType": "uint256",
          "name": "tokenId",
          "type": "uint256"
        }
      ],
      "name": "ERC721NonexistentToken",
      "type": "error"
    },
    {
      "inputs": [
        {
          "internalType": "address",
          "name": "owner",
          "type": "address"
        }
      ],
      "name": "OwnableInvalidOwner",
      "type": "error"
    },
    {
      "inputs": [
        {
          "internalType": "address",
          "name": "account",
          "type": "address"
        }
      ],
      "name": "OwnableUnauthorizedAccount",
      "type": "error"
    },
    {
      "anonymous": false,
      "inputs": [
        {
          "indexed": true,
          "internalType": "address",
          "name": "owner",
          "type": "address"
        },
        {
          "indexed": true,
          "internalType": "address",
          "name": "approved",
          "type": "address"
        },
        {
          "indexed": true,
          "internalType": "uint256",
          "name": "tokenId",
          "type": "uint256"
        }
      ],
      "name": "Approval",
      "type": "event"
    },
    {
      "anonymous": false,
      "inputs": [
        {
          "indexed": true,
          "internalType": "address",
          "name": "owner",
          "type": "address"
        },
        {
          "indexed": true,
          "internalType": "address",
          "name": "operator",
          "type": "address"
        },
        {
          "indexed": false,
          "internalType": "bool",
          "name": "approved",
          "type": "bool"
        }
      ],
      "name": "ApprovalForAll",
      "type": "event"
    },
    {
      "anonymous": false,
      "inputs": [
        {
          "indexed": false,
          "internalType": "uint256",
          "name": "_fromTokenId",
          "type": "uint256"
        },
        {
          "indexed": false,
          "internalType": "uint256",
          "name": "_toTokenId",
          "type": "uint256"
        }
      ],
      "name": "BatchMetadataUpdate",
      "type": "event"
    },
    {
      "anonymous": false,
      "inputs": [
        {
          "indexed": false,
          "internalType": "uint256",
          "name": "_tokenId",
          "type": "uint256"
        }
      ],
      "name": "MetadataUpdate",
      "type": "event"
    },
    {
      "anonymous": false,
      "inputs": [
        {
          "indexed": true,
          "internalType": "address",
          "name": "previousOwner",
          "type": "address"
        },
        {
          "indexed": true,
          "internalType": "address",
          "name": "newOwner",
          "type": "address"
        }
      ],
      "name": "OwnershipTransferred",
      "type": "event"
    },
    {
      "anonymous": false,
      "inputs": [
        {
          "indexed": true,
          "internalType": "address",
          "name": "from",
          "type": "address"
        },
        {
          "indexed": true,
          "internalType": "address",
          "name": "to",
          "type": "address"
        },
        {
          "indexed": true,
          "internalType": "uint256",
          "name": "tokenId",
          "type": "uint256"
        }
      ],
      "name": "Transfer",
      "type": "event"
    },
    {
      "inputs": [],
      "name": "MINT_PRICE",
      "outputs": [
        {
          "internalType": "uint256",
          "name": "",
          "type": "uint256"
        }
      ],
      "stateMutability": "view",
      "type": "function"
    },
    {
      "inputs": [
        {
          "internalType": "address",
          "name": "to",
          "type": "address"
        },
        {
          "internalType": "uint256",
          "name": "tokenId",
          "type": "uint256"
        }
      ],
      "name": "approve",
      "outputs": [],
      "stateMutability": "nonpayable",
      "type": "function"
    },
    {
      "inputs": [
        {
          "internalType": "address",
          "name": "owner",
          "type": "address"
        }
      ],
      "name": "balanceOf",
      "outputs": [
        {
          "internalType": "uint256",
          "name": "",
          "type": "uint256"
        }
      ],
      "stateMutability": "view",
      "type": "function"
    },
    {
      "inputs": [
        {
          "internalType": "uint256",
          "name": "tokenId",
          "type": "uint256"
        }
      ],
      "name": "getApproved",
      "outputs": [
        {
          "internalType": "address",
          "name": "",
          "type": "address"
        }
      ],
      "stateMutability": "view",
      "type": "function"
    },
    {
      "inputs": [
        {
          "internalType": "address",
          "name": "owner",
          "type": "address"
        },
        {
          "internalType": "address",
          "name": "operator",
          "type": "address"
        }
      ],
      "name": "isApprovedForAll",
      "outputs": [
        {
          "internalType": "bool",
          "name": "",
          "type": "bool"
        }
      ],
      "stateMutability": "view",
      "type": "function"
    },
    {
      "inputs": [
        {
          "internalType": "string",
          "name": "_tokenURI",
          "type": "string"
        }
      ],
      "name": "mint",
      "outputs": [
        {
          "internalType": "uint256",
          "name": "",
          "type": "uint256"
        }
      ],
      "stateMutability": "payable",
      "type": "function"
    },
    {
      "inputs": [],
      "name": "name",
      "outputs": [
        {
          "internalType": "string",
          "name": "",
          "type": "string"
        }
      ],
      "stateMutability": "view",
      "type": "function"
    },
    {
      "inputs": [],
      "name": "owner",
      "outputs": [
        {
          "internalType": "address",
          "name": "",
          "type": "address"
        }
      ],
      "stateMutability": "view",
      "type": "function"
    },
    {
      "inputs": [
        {
          "internalType": "uint256",
          "name": "tokenId",
          "type": "uint256"
        }
      ],
      "name": "ownerOf",
      "outputs": [
        {
          "internalType": "address",
          "name": "",
          "type": "address"
        }
      ],
      "stateMutability": "view",
      "type": "function"
    },
    {
      "inputs": [],
      "name": "renounceOwnership",
      "outputs": [],
      "stateMutability": "nonpayable",
      "type": "function"
    },
    {
      "inputs": [
        {
          "internalType": "address",
          "name": "from",
          "type": "address"
        },
        {
          "internalType": "address",
          "name": "to",
          "type": "address"
        },
        {
          "internalType": "uint256",
          "name": "tokenId",
          "type": "uint256"
        }
      ],
      "name": "safeTransferFrom",
      "outputs": [],
      "stateMutability": "nonpayable",
      "type": "function"
    },
    {
      "inputs": [
        {
          "internalType": "address",
          "name": "from",
          "type": "address"
        },
        {
          "internalType": "address",
          "name": "to",
          "type": "address"
        },
        {
          "internalType": "uint256",
          "name": "tokenId",
          "type": "uint256"
        },
        {
          "internalType": "bytes",
          "name": "data",
          "type": "bytes"
        }
      ],
      "name": "safeTransferFrom",
      "outputs": [],
      "stateMutability": "nonpayable",
      "type": "function"
    },
    {
      "inputs": [
        {
          "internalType": "address",
          "name": "operator",
          "type": "address"
        },
        {
          "internalType": "bool",
          "name": "approved",
          "type": "bool"
        }
      ],
      "name": "setApprovalForAll",
      "outputs": [],
      "stateMutability": "nonpayable",
      "type": "function"
    },
    {
      "inputs": [
        {
          "internalType": "bytes4",
          "name": "interfaceId",
          "type": "bytes4"
        }
      ],
      "name": "supportsInterface",
      "outputs": [
        {
          "internalType": "bool",
          "name": "",
          "type": "bool"
        }
      ],
      "stateMutability": "view",
      "type": "function"
    },
    {
      "inputs": [],
      "name": "symbol",
      "outputs": [
        {
          "internalType": "string",
          "name": "",
          "type": "string"
        }
      ],
      "stateMutability": "view",
      "type": "function"
    },
    {
      "inputs": [
        {
          "internalType": "uint256",
          "name": "tokenId",
          "type": "uint256"
        }
      ],
      "name": "tokenURI",
      "outputs": [
        {
          "internalType": "string",
          "name": "",
          "type": "string"
        }
      ],
      "stateMutability": "view",
      "type": "function"
    },
    {
      "inputs": [],
      "name": "totalSupply",
      "outputs": [
        {
          "internalType": "uint256",
          "name": "",
          "type": "uint256"
        }
      ],
      "stateMutability": "view",
      "type": "function"
    },
    {
      "inputs": [
        {
          "internalType": "address",
          "name": "from",
          "type": "address"
        },
        {
          "internalType": "address",
          "name": "to",
          "type": "address"
        },
        {
          "internalType": "uint256",
          "name": "tokenId",
          "type": "uint256"
        }
      ],
      "name": "transferFrom",
      "outputs": [],
      "stateMutability": "nonpayable",
      "type": "function"
    },
    {
      "inputs": [
        {
          "internalType": "address",
          "name": "newOwner",
          "type": "address"
        }
      ],
      "name": "transferOwnership",
      "outputs": [],
      "stateMutability": "nonpayable",
      "type": "function"
    },
    {
      "inputs": [],
      "name": "withdraw",
      "outputs": [],
      "stateMutability": "nonpayable",
      "type": "function"
    }
  ],
  "bytecode": "0x608060405260016008553480156200001657600080fd5b50336040518060400160405280601d81526020017f4661726361737465722050726f204d656d6265727368697020436172640000008152506040518060400160405280600681526020017f46415250524f0000000000000000000000000000000000000000000000000000815250816000908162000095919062000477565b508060019081620000a7919062000477565b505050600073ffffffffffffffffffffffffffffffffffffffff168173ffffffffffffffffffffffffffffffffffffffff16036200011f5760006040517f1e4fbdf7000000000000000000000000000000000000000000000000000000008152600401620001169190620005a3565b60405180910390fd5b62000130816200013760201b60201c565b50620005c0565b6000600760009054906101000a900473ffffffffffffffffffffffffffffffffffffffff16905081600760006101000a81548173ffffffffffffffffffffffffffffffffffffffff021916908373ffffffffffffffffffffffffffffffffffffffff1602179055508173ffffffffffffffffffffffffffffffffffffffff168173ffffffffffffffffffffffffffffffffffffffff167f8be0079c531659141344cd1fd0a4f28419497f9722a3daafe3b4186f6b6457e060405160405180910390a35050565b600081519050919050565b7f4e487b7100000000000000000000000000000000000000000000000000000000600052604160045260246000fd5b7f4e487b7100000000000000000000000000000000000000000000000000000000600052602260045260246000fd5b600060028204905060018216806200027f57607f821691505b60208210810362000295576200029462000237565b5b50919050565b60008190508160005260206000209050919050565b60006020601f8301049050919050565b600082821b905092915050565b600060088302620002ff7fffffffffffffffffffffffffffffffffffffffffffffffffffffffffffffffff82620002c0565b6200030b8683620002c0565b95508019841693508086168417925050509392505050565b6000819050919050565b6000819050919050565b600062000358620003526200034c8462000323565b6200032d565b62000323565b9050919050565b6000819050919050565b620003748362000337565b6200038c62000383826200035f565b848454620002cd565b825550505050565b600090565b620003a362000394565b620003b081848462000369565b505050565b5b81811015620003d857620003cc60008262000399565b600181019050620003b6565b5050565b601f8211156200042757620003f1816200029b565b620003fc84620002b0565b810160208510156200040c578190505b620004246200041b85620002b0565b830182620003b5565b50505b505050565b600082821c905092915050565b60006200044c600019846008026200042c565b1980831691505092915050565b600062000467838362000439565b9150826002028217905092915050565b6200048282620001fd565b67ffffffffffffffff8111156200049e576200049d62000208565b5b620004aa825462000266565b620004b7828285620003dc565b600060209050601f831160018114620004ef5760008415620004da578287015190505b620004e6858262000459565b86555062000556565b601f198416620004ff866200029b565b60005b82811015620005295784890151825560018201915060208501945060208101905062000502565b8683101562000549578489015162000545601f89168262000439565b8355505b6001600288020188555050505b505050505050565b600073ffffffffffffffffffffffffffffffffffffffff82169050919050565b60006200058b826200055e565b9050919050565b6200059d816200057e565b82525050565b6000602082019050620005ba600083018462000592565b92915050565b6128fe80620005d06000396000f3fe60806040526004361061011f5760003560e01c8063715018a6116100a0578063c002d23d11610064578063c002d23d146103bf578063c87b56dd146103ea578063d85d3d2714610427578063e985e9c514610457578063f2fde38b146104945761011f565b8063715018a6146103005780638da5cb5b1461031757806395d89b4114610342578063a22cb4651461036d578063b88d4fde146103965761011f565b806323b872dd116100e757806323b872dd1461021d5780633ccfd60b1461024657806342842e0e1461025d5780636352211e1461028657806370a08231146102c35761011f565b806301ffc9a71461012457806306fdde0314610161578063081812fc1461018c578063095ea7b3146101c957806318160ddd146101f2575b600080fd5b34801561013057600080fd5b5061014b60048036038101906101469190611cc9565b6104bd565b6040516101589190611d11565b60405180910390f35b34801561016d57600080fd5b506101766104cf565b6040516101839190611dbc565b60405180910390f35b34801561019857600080fd5b506101b360048036038101906101ae9190611e14565b610561565b6040516101c09190611e82565b60405180910390f35b3480156101d557600080fd5b506101f060048036038101906101eb9190611ec9565b61057d565b005b3480156101fe57600080fd5b50610207610593565b6040516102149190611f18565b60405180910390f35b34801561022957600080fd5b50610244600480360381019061023f9190611f33565b6105a9565b005b34801561025257600080fd5b5061025b6106ab565b005b34801561026957600080fd5b50610284600480360381019061027f9190611f33565b610709565b005b34801561029257600080fd5b506102ad60048036038101906102a89190611e14565b610729565b6040516102ba9190611e82565b60405180910390f35b3480156102cf57600080fd5b506102ea60048036038101906102e59190611f86565b61073b565b6040516102f79190611f18565b60405180910390f35b34801561030c57600080fd5b506103156107f5565b005b34801561032357600080fd5b5061032c610809565b6040516103399190611e82565b60405180910390f35b34801561034e57600080fd5b50610357610833565b6040516103649190611dbc565b60405180910390f35b34801561037957600080fd5b50610394600480360381019061038f9190611fdf565b6108c5565b005b3480156103a257600080fd5b506103bd60048036038101906103b89190612154565b6108db565b005b3480156103cb57600080fd5b506103d4610900565b6040516103e19190611f18565b60405180910390f35b3480156103f657600080fd5b50610411600480360381019061040c9190611e14565b61090b565b60405161041e9190611dbc565b60405180910390f35b610441600480360381019061043c9190612278565b61091d565b60405161044e9190611f18565b60405180910390f35b34801561046357600080fd5b5061047e600480360381019061047991906122c1565b6109a0565b60405161048b9190611d11565b60405180910390f35b3480156104a057600080fd5b506104bb60048036038101906104b69190611f86565b610a34565b005b60006104c882610aba565b9050919050565b6060600080546104de90612330565b80601f016020809104026020016040519081016040528092919081815260200182805461050a90612330565b80156105575780601f1061052c57610100808354040283529160200191610557565b820191906000526020600020905b81548152906001019060200180831161053a57829003601f168201915b5050505050905090565b600061056c82610b1b565b5061057682610ba3565b9050919050565b61058f828261058a610be0565b610be8565b5050565b600060016008546105a49190612390565b905090565b600073ffffffffffffffffffffffffffffffffffffffff168273ffffffffffffffffffffffffffffffffffffffff160361061b5760006040517f64a0ae920000000000000000000000000000000000000000000000000000000081526004016106129190611e82565b60405180910390fd5b600061062f838361062a610be0565b610bfa565b90508373ffffffffffffffffffffffffffffffffffffffff168173ffffffffffffffffffffffffffffffffffffffff16146106a5578382826040517f64283d7b00000000000000000000000000000000000000000000000000000000815260040161069c939291906123c4565b60405180910390fd5b50505050565b6106b3610e14565b60004790506106c0610809565b73ffffffffffffffffffffffffffffffffffffffff166108fc829081150290604051600060405180830381858888f19350505050158015610705573d6000803e3d6000fd5b5050565b610724838383604051806020016040528060008152506108db565b505050565b600061073482610b1b565b9050919050565b60008073ffffffffffffffffffffffffffffffffffffffff168273ffffffffffffffffffffffffffffffffffffffff16036107ae5760006040517f89c62b640000000000000000000000000000000000000000000000000000000081526004016107a59190611e82565b60405180910390fd5b600360008373ffffffffffffffffffffffffffffffffffffffff1673ffffffffffffffffffffffffffffffffffffffff168152602001908152602001600020549050919050565b6107fd610e14565b6108076000610e9b565b565b6000600760009054906101000a900473ffffffffffffffffffffffffffffffffffffffff16905090565b60606001805461084290612330565b80601f016020809104026020016040519081016040528092919081815260200182805461086e90612330565b80156108bb5780601f10610890576101008083540402835291602001916108bb565b820191906000526020600020905b81548152906001019060200180831161089e57829003601f168201915b5050505050905090565b6108d76108d0610be0565b8383610f61565b5050565b6108e68484846105a9565b6108fa6108f1610be0565b858585856110d0565b50505050565b6611c37937e0800081565b606061091682611281565b9050919050565b60006611c37937e080003414610968576040517f08c379a000000000000000000000000000000000000000000000000000000000815260040161095f90612447565b60405180910390fd5b60006008600081548092919061097d90612467565b91905055905061098d3382611394565b610997818461148d565b80915050919050565b6000600560008473ffffffffffffffffffffffffffffffffffffffff1673ffffffffffffffffffffffffffffffffffffffff16815260200190815260200160002060008373ffffffffffffffffffffffffffffffffffffffff1673ffffffffffffffffffffffffffffffffffffffff16815260200190815260200160002060009054906101000a900460ff16905092915050565b610a3c610e14565b600073ffffffffffffffffffffffffffffffffffffffff168173ffffffffffffffffffffffffffffffffffffffff1603610aae5760006040517f1e4fbdf7000000000000000000000000000000000000000000000000000000008152600401610aa59190611e82565b60405180910390fd5b610ab781610e9b565b50565b6000634906490660e01b7bffffffffffffffffffffffffffffffffffffffffffffffffffffffff1916827bffffffffffffffffffffffffffffffffffffffffffffffffffffffff19161480610b145750610b13826114e9565b5b9050919050565b600080610b27836115cb565b9050600073ffffffffffffffffffffffffffffffffffffffff168173ffffffffffffffffffffffffffffffffffffffff1603610b9a57826040517f7e273289000000000000000000000000000000000000000000000000000000008152600401610b919190611f18565b60405180910390fd5b80915050919050565b60006004600083815260200190815260200160002060009054906101000a900473ffffffffffffffffffffffffffffffffffffffff169050919050565b600033905090565b610bf58383836001611608565b505050565b600080610c06846115cb565b9050600073ffffffffffffffffffffffffffffffffffffffff168373ffffffffffffffffffffffffffffffffffffffff1614610c4857610c478184866117cd565b5b600073ffffffffffffffffffffffffffffffffffffffff168173ffffffffffffffffffffffffffffffffffffffff1614610cd957610c8a600085600080611608565b6001600360008373ffffffffffffffffffffffffffffffffffffffff1673ffffffffffffffffffffffffffffffffffffffff168152602001908152602001600020600082825403925050819055505b600073ffffffffffffffffffffffffffffffffffffffff168573ffffffffffffffffffffffffffffffffffffffff1614610d5c576001600360008773ffffffffffffffffffffffffffffffffffffffff1673ffffffffffffffffffffffffffffffffffffffff168152602001908152602001600020600082825401925050819055505b846002600086815260200190815260200160002060006101000a81548173ffffffffffffffffffffffffffffffffffffffff021916908373ffffffffffffffffffffffffffffffffffffffff160217905550838573ffffffffffffffffffffffffffffffffffffffff168273ffffffffffffffffffffffffffffffffffffffff167fddf252ad1be2c89b69c2b068fc378daa952ba7f163c4a11628f55a4df523b3ef60405160405180910390a4809150509392505050565b610e1c610be0565b73ffffffffffffffffffffffffffffffffffffffff16610e3a610809565b73ffffffffffffffffffffffffffffffffffffffff1614610e9957610e5d610be0565b6040517f118cdaa7000000000000000000000000000000000000000000000000000000008152600401610e909190611e82565b60405180910390fd5b565b6000600760009054906101000a900473ffffffffffffffffffffffffffffffffffffffff16905081600760006101000a81548173ffffffffffffffffffffffffffffffffffffffff021916908373ffffffffffffffffffffffffffffffffffffffff1602179055508173ffffffffffffffffffffffffffffffffffffffff168173ffffffffffffffffffffffffffffffffffffffff167f8be0079c531659141344cd1fd0a4f28419497f9722a3daafe3b4186f6b6457e060405160405180910390a35050565b600073ffffffffffffffffffffffffffffffffffffffff168273ffffffffffffffffffffffffffffffffffffffff1603610fd257816040517f5b08ba18000000000000000000000000000000000000000000000000000000008152600401610fc99190611e82565b60405180910390fd5b80600560008573ffffffffffffffffffffffffffffffffffffffff1673ffffffffffffffffffffffffffffffffffffffff16815260200190815260200160002060008473ffffffffffffffffffffffffffffffffffffffff1673ffffffffffffffffffffffffffffffffffffffff16815260200190815260200160002060006101000a81548160ff0219169083151502179055508173ffffffffffffffffffffffffffffffffffffffff168373ffffffffffffffffffffffffffffffffffffffff167f17307eab39ab6107e8899845ad3d59bd9653f200f220920489ca2b5937696c31836040516110c39190611d11565b60405180910390a3505050565b60008373ffffffffffffffffffffffffffffffffffffffff163b111561127a578273ffffffffffffffffffffffffffffffffffffffff1663150b7a02868685856040518563ffffffff1660e01b815260040161112f9493929190612504565b6020604051808303816000875af192505050801561116b57506040513d601f19601f820116820180604052508101906111689190612565565b60015b6111ef573d806000811461119b576040519150601f19603f3d011682016040523d82523d6000602084013e6111a0565b606091505b5060008151036111e757836040517f64a0ae920000000000000000000000000000000000000000000000000000000081526004016111de9190611e82565b60405180910390fd5b805181602001fd5b63150b7a0260e01b7bffffffffffffffffffffffffffffffffffffffffffffffffffffffff1916817bffffffffffffffffffffffffffffffffffffffffffffffffffffffff19161461127857836040517f64a0ae9200000000000000000000000000000000000000000000000000000000815260040161126f9190611e82565b60405180910390fd5b505b5050505050565b606061128c82610b1b565b5060006006600084815260200190815260200160002080546112ad90612330565b80601f01602080910402602001604051908101604052809291908181526020018280546112d990612330565b80156113265780601f106112fb57610100808354040283529160200191611326565b820191906000526020600020905b81548152906001019060200180831161130957829003601f168201915b505050505090506000611337611891565b9050600081510361134c57819250505061138f565b6000825111156113815780826040516020016113699291906125ce565b6040516020818303038152906040529250505061138f565b61138a846118a8565b925050505b919050565b600073ffffffffffffffffffffffffffffffffffffffff168273ffffffffffffffffffffffffffffffffffffffff16036114065760006040517f64a0ae920000000000000000000000000000000000000000000000000000000081526004016113fd9190611e82565b60405180910390fd5b600061141483836000610bfa565b9050600073ffffffffffffffffffffffffffffffffffffffff168173ffffffffffffffffffffffffffffffffffffffff16146114885760006040517f73c6ac6e00000000000000000000000000000000000000000000000000000000815260040161147f9190611e82565b60405180910390fd5b505050565b806006600084815260200190815260200160002090816114ad919061279e565b507ff8e1a15aba9398e019f0b49df1a4fde98ee17ae345cb5f6b5e2c27f5033e8ce7826040516114dd9190611f18565b60405180910390a15050565b60007f80ac58cd000000000000000000000000000000000000000000000000000000007bffffffffffffffffffffffffffffffffffffffffffffffffffffffff1916827bffffffffffffffffffffffffffffffffffffffffffffffffffffffff191614806115b457507f5b5e139f000000000000000000000000000000000000000000000000000000007bffffffffffffffffffffffffffffffffffffffffffffffffffffffff1916827bffffffffffffffffffffffffffffffffffffffffffffffffffffffff1916145b806115c457506115c382611911565b5b9050919050565b60006002600083815260200190815260200160002060009054906101000a900473ffffffffffffffffffffffffffffffffffffffff169050919050565b80806116415750600073ffffffffffffffffffffffffffffffffffffffff168273ffffffffffffffffffffffffffffffffffffffff1614155b1561177557600061165184610b1b565b9050600073ffffffffffffffffffffffffffffffffffffffff168373ffffffffffffffffffffffffffffffffffffffff16141580156116bc57508273ffffffffffffffffffffffffffffffffffffffff168173ffffffffffffffffffffffffffffffffffffffff1614155b80156116cf57506116cd81846109a0565b155b1561171157826040517fa9fbf51f0000000000000000000000000000000000000000000000000000000081526004016117089190611e82565b60405180910390fd5b811561177357838573ffffffffffffffffffffffffffffffffffffffff168273ffffffffffffffffffffffffffffffffffffffff167f8c5be1e5ebec7d5bd14f71427d1e84f3dd0314c0f7b2291e5b200ac8c7c3b92560405160405180910390a45b505b836004600085815260200190815260200160002060006101000a81548173ffffffffffffffffffffffffffffffffffffffff021916908373ffffffffffffffffffffffffffffffffffffffff16021790555050505050565b6117d883838361197b565b61188c57600073ffffffffffffffffffffffffffffffffffffffff168373ffffffffffffffffffffffffffffffffffffffff160361184d57806040517f7e2732890000000000000000000000000000000000000000000000000000000081526004016118449190611f18565b60405180910390fd5b81816040517f177e802f000000000000000000000000000000000000000000000000000000008152600401611883929190612870565b60405180910390fd5b505050565b606060405180602001604052806000815250905090565b60606118b382610b1b565b5060006118be611891565b905060008151116118de5760405180602001604052806000815250611909565b806118e884611a3c565b6040516020016118f99291906125ce565b6040516020818303038152906040525b915050919050565b60007f01ffc9a7000000000000000000000000000000000000000000000000000000007bffffffffffffffffffffffffffffffffffffffffffffffffffffffff1916827bffffffffffffffffffffffffffffffffffffffffffffffffffffffff1916149050919050565b60008073ffffffffffffffffffffffffffffffffffffffff168373ffffffffffffffffffffffffffffffffffffffff1614158015611a3357508273ffffffffffffffffffffffffffffffffffffffff168473ffffffffffffffffffffffffffffffffffffffff1614806119f457506119f384846109a0565b5b80611a3257508273ffffffffffffffffffffffffffffffffffffffff16611a1a83610ba3565b73ffffffffffffffffffffffffffffffffffffffff16145b5b90509392505050565b606060006001611a4b84611b0a565b01905060008167ffffffffffffffff811115611a6a57611a69612029565b5b6040519080825280601f01601f191660200182016040528015611a9c5781602001600182028036833780820191505090505b509050600082602001820190505b600115611aff578080600190039150507f3031323334353637383961626364656600000000000000000000000000000000600a86061a8153600a8581611af357611af2612899565b5b04945060008503611aaa575b819350505050919050565b600080600090507a184f03e93ff9f4daa797ed6e38ed64bf6a1f0100000000000000008310611b68577a184f03e93ff9f4daa797ed6e38ed64bf6a1f0100000000000000008381611b5e57611b5d612899565b5b0492506040810190505b6d04ee2d6d415b85acef81000000008310611ba5576d04ee2d6d415b85acef81000000008381611b9b57611b9a612899565b5b0492506020810190505b662386f26fc100008310611bd457662386f26fc100008381611bca57611bc9612899565b5b0492506010810190505b6305f5e1008310611bfd576305f5e1008381611bf357611bf2612899565b5b0492506008810190505b6127108310611c22576127108381611c1857611c17612899565b5b0492506004810190505b60648310611c455760648381611c3b57611c3a612899565b5b0492506002810190505b600a8310611c54576001810190505b80915050919050565b6000604051905090565b600080fd5b600080fd5b60007fffffffff0000000000000000000000000000000000000000000000000000000082169050919050565b611ca681611c71565b8114611cb157600080fd5b50565b600081359050611cc381611c9d565b92915050565b600060208284031215611cdf57611cde611c67565b5b6000611ced84828501611cb4565b91505092915050565b60008115159050919050565b611d0b81611cf6565b82525050565b6000602082019050611d266000830184611d02565b92915050565b600081519050919050565b600082825260208201905092915050565b60005b83811015611d66578082015181840152602081019050611d4b565b60008484015250505050565b6000601f19601f8301169050919050565b6000611d8e82611d2c565b611d988185611d37565b9350611da8818560208601611d48565b611db181611d72565b840191505092915050565b60006020820190508181036000830152611dd68184611d83565b905092915050565b6000819050919050565b611df181611dde565b8114611dfc57600080fd5b50565b600081359050611e0e81611de8565b92915050565b600060208284031215611e2a57611e29611c67565b5b6000611e3884828501611dff565b91505092915050565b600073ffffffffffffffffffffffffffffffffffffffff82169050919050565b6000611e6c82611e41565b9050919050565b611e7c81611e61565b82525050565b6000602082019050611e976000830184611e73565b92915050565b611ea681611e61565b8114611eb157600080fd5b50565b600081359050611ec381611e9d565b92915050565b60008060408385031215611ee057611edf611c67565b5b6000611eee85828601611eb4565b9250506020611eff85828601611dff565b9150509250929050565b611f1281611dde565b82525050565b6000602082019050611f2d6000830184611f09565b92915050565b600080600060608486031215611f4c57611f4b611c67565b5b6000611f5a86828701611eb4565b9350506020611f6b86828701611eb4565b9250506040611f7c86828701611dff565b9150509250925092565b600060208284031215611f9c57611f9b611c67565b5b6000611faa84828501611eb4565b91505092915050565b611fbc81611cf6565b8114611fc757600080fd5b50565b600081359050611fd981611fb3565b92915050565b60008060408385031215611ff657611ff5611c67565b5b600061200485828601611eb4565b925050602061201585828601611fca565b9150509250929050565b600080fd5b600080fd5b7f4e487b7100000000000000000000000000000000000000000000000000000000600052604160045260246000fd5b61206182611d72565b810181811067ffffffffffffffff821117156120805761207f612029565b5b80604052505050565b6000612093611c5d565b905061209f8282612058565b919050565b600067ffffffffffffffff8211156120bf576120be612029565b5b6120c882611d72565b9050602081019050919050565b82818337600083830152505050565b60006120f76120f2846120a4565b612089565b90508281526020810184848401111561211357612112612024565b5b61211e8482856120d5565b509392505050565b600082601f83011261213b5761213a61201f565b5b813561214b8482602086016120e4565b91505092915050565b6000806000806080858703121561216e5761216d611c67565b5b600061217c87828801611eb4565b945050602061218d87828801611eb4565b935050604061219e87828801611dff565b925050606085013567ffffffffffffffff8111156121bf576121be611c6c565b5b6121cb87828801612126565b91505092959194509250565b600067ffffffffffffffff8211156121f2576121f1612029565b5b6121fb82611d72565b9050602081019050919050565b600061221b612216846121d7565b612089565b90508281526020810184848401111561223757612236612024565b5b6122428482856120d5565b509392505050565b600082601f83011261225f5761225e61201f565b5b813561226f848260208601612208565b91505092915050565b60006020828403121561228e5761228d611c67565b5b600082013567ffffffffffffffff8111156122ac576122ab611c6c565b5b6122b88482850161224a565b91505092915050565b600080604083850312156122d8576122d7611c67565b5b60006122e685828601611eb4565b92505060206122f785828601611eb4565b9150509250929050565b7f4e487b7100000000000000000000000000000000000000000000000000000000600052602260045260246000fd5b6000600282049050600182168061234857607f821691505b60208210810361235b5761235a612301565b5b50919050565b7f4e487b7100000000000000000000000000000000000000000000000000000000600052601160045260246000fd5b600061239b82611dde565b91506123a683611dde565b92508282039050818111156123be576123bd612361565b5b92915050565b60006060820190506123d96000830186611e73565b6123e66020830185611f09565b6123f36040830184611e73565b949350505050565b7f496e636f7272656374207061796d656e7420616d6f756e740000000000000000600082015250565b6000612431601883611d37565b915061243c826123fb565b602082019050919050565b6000602082019050818103600083015261246081612424565b9050919050565b600061247282611dde565b91507fffffffffffffffffffffffffffffffffffffffffffffffffffffffffffffffff82036124a4576124a3612361565b5b600182019050919050565b600081519050919050565b600082825260208201905092915050565b60006124d6826124af565b6124e081856124ba565b93506124f0818560208601611d48565b6124f981611d72565b840191505092915050565b60006080820190506125196000830187611e73565b6125266020830186611e73565b6125336040830185611f09565b818103606083015261254581846124cb565b905095945050505050565b60008151905061255f81611c9d565b92915050565b60006020828403121561257b5761257a611c67565b5b600061258984828501612550565b91505092915050565b600081905092915050565b60006125a882611d2c565b6125b28185612592565b93506125c2818560208601611d48565b80840191505092915050565b60006125da828561259d565b91506125e6828461259d565b91508190509392505050565b60008190508160005260206000209050919050565b60006020601f8301049050919050565b600082821b905092915050565b6000600883026126547fffffffffffffffffffffffffffffffffffffffffffffffffffffffffffffffff82612617565b61265e8683612617565b95508019841693508086168417925050509392505050565b6000819050919050565b600061269b61269661269184611dde565b612676565b611dde565b9050919050565b6000819050919050565b6126b583612680565b6126c96126c1826126a2565b848454612624565b825550505050565b600090565b6126de6126d1565b6126e98184846126ac565b505050565b5b8181101561270d576127026000826126d6565b6001810190506126ef565b5050565b601f82111561275257612723816125f2565b61272c84612607565b8101602085101561273b578190505b61274f61274785612607565b8301826126ee565b50505b505050565b600082821c905092915050565b600061277560001984600802612757565b1980831691505092915050565b600061278e8383612764565b9150826002028217905092915050565b6127a782611d2c565b67ffffffffffffffff8111156127c0576127bf612029565b5b6127ca8254612330565b6127d5828285612711565b600060209050601f83116001811461280857600084156127f6578287015190505b6128008582612782565b865550612868565b601f198416612816866125f2565b60005b8281101561283e57848901518255600182019150602085019450602081019050612819565b8683101561285b5784890151612857601f891682612764565b8355505b6001600288020188555050505b505050505050565b60006040820190506128856000830185611e73565b6128926020830184611f09565b9392505050565b7f4e487b7100000000000000000000000000000000000000000000000000000000600052601260045260246000fdfea264697066735822122041a3a49c15893739a5026a4ab86aa42e19dd8e6a3a16a7197804b51f9dbac89f64736f6c63430008140033",
  "linkReferences": {},
  "deployedLinkReferences": {}
}